:020000040000FA
:100000000C9487000C94AF000C94AF000C942A0C55
:100010000C942A0C0C942A0C0C94AF000C94AF0096
:100020000C94AF000C94AF000C94AF000C94AF0094
:100030000C94AF000C94AF000C94AF000C94AF0084
:100040000C94E00B0C94AF000C94AE0B0C94880B4A
:100050000C94AF000C94AF000C94AF000C94AF0064
:100060000C94AF000C94AF00CDCCCC3D0AD7233C10
:1000700017B7D13877CC2B329595E6241FB14F0AAC
:100080000000803FCDCCCC3D6F12833A95BFD63374
:100090007D1D9026B3CE010C000020410000C84217
:1000A00000401C4620BCBE4CCA1B0E5AAEC59D74F7
:1000B00000000000240027002A00000000080002C1
:1000C0000100000304070000000000000000000021
:1000D0000000230026002900000000002500280061
:1000E0002B000404040404040404020202020202B9
:1000F00003030303030301020408102040800102EC
:1001000004081020010204081020A20C90101124F1
:100110001FBECFEFD8E0DEBFCDBF22E0A6ECB1E03E
:1001200001C01D92AE3DB207E1F711E0A0E0B1E0E1
:10013000E8E1FAE202C005900D92A63CB107D9F7BA
:1001400010E0C6E8D0E004C02197FE010E94F91239
:10015000C538D107C9F70E94810D0C94FF140C9487
:100160000000AF92BF92CF92DF92EF92FF920F9377
:100170001F93CF93DF936C017B018B01040F151F3D
:10018000EB015E01AE18BF08C017D10759F06991A5
:10019000D601ED91FC910190F081E02DC601099509
:1001A000892B79F7C501DF91CF911F910F91FF90B6
:1001B000EF90DF90CF90BF90AF900895FC01538DEA
:1001C000448D252F30E0842F90E0821B930B541731
:1001D00010F0CF96089501970895FC01918D828DBE
:1001E000981761F0A28DAE0FBF2FB11D5D968C9157
:1001F000928D9F5F9F73928F90E008958FEF9FEF96
:1002000008952FB7F89480910F0290911002A09159
:100210001102B09112022FBF80931B0290931C0217
:10022000A0931D02B0931E0283E192E00E94ED00B4
:1002300097FF26C02FB7F89480910F02909110027B
:10024000A0911102B09112022FBF40911B02509158
:100250001C0260911D0270911E02841B950BA60B5F
:10026000B70B4091170250911802609119027091DA
:100270001A0284179507A607B707B0F28FEF9FEF12
:100280000895FC01918D828D981731F0828DE80FD1
:10029000F11D858D90E008958FEF9FEF0895FC018B
:1002A000918D228D892F90E0805C9F4F821B910958
:1002B0008F739927089583E192E00E944F0121E016
:1002C000892B09F420E0822F089580E090E0892BAB
:1002D00029F00E945B0181110C9400000895FC013B
:1002E000A48DA80FB92FB11DA35ABF4F2C91848D97
:1002F00090E001968F739927848FA689B7892C93F4
:10030000A089B1898C91837080648C93938D848D46
:10031000981306C00288F389E02D80818F7D808349
:100320000895EF92FF920F931F93CF93DF93EC0109
:1003300081E0888F9B8D8C8D98131AC0E889F9898C
:10034000808185FF15C09FB7F894EE89FF8960838F
:10035000E889F98980818370806480839FBF81E010
:1003600090E0DF91CF911F910F91FF90EF90089552
:10037000F62E0B8D10E00F5F1F4F0F731127E02E2D
:100380008C8D8E110CC00FB607FCFACFE889F98965
:10039000808185FFF5CFCE010E946F01F1CFEB8DFB
:1003A000EC0FFD2FF11DE35AFF4FF0829FB7F89439
:1003B0000B8FEA89FB8980818062CFCFCF93DF9357
:1003C000EC01888D8823B9F0AA89BB89E889F9896D
:1003D0008C9185FD03C0808186FD0DC00FB607FCA2
:1003E000F7CF8C9185FFF2CF808185FFEDCFCE01D5
:1003F0000E946F01E9CFDF91CF91089590E0FC0159
:10040000E654FF4F2491FC01EA50FF4F3491FC0168
:10041000EE51FF4FE491EE23C9F0222339F023304F
:1004200001F1A8F4213019F1223029F1F0E0EE0FAA
:10043000FF1FE852FF4FA591B4918FB7F894EC914C
:10044000611126C030953E233C938FBF089527301D
:10045000A9F02830C9F0243049F7809180008F7DC1
:1004600003C0809180008F7780938000DFCF84B5B8
:100470008F7784BDDBCF84B58F7DFBCF8091B000BB
:100480008F778093B000D2CF8091B0008F7DF9CF6D
:100490003E2BDACFCF93DF9390E0FC01EA50FF4F81
:1004A00024918E519F4FFC0184918823C9F090E0E4
:1004B000880F991FFC01E055FF4FA591B491FC01F5
:1004C000E852FF4FC591D49161110DC09FB7F894C8
:1004D0008C91209582238C938881282328839FBF29
:1004E000DF91CF910895623051F49FB7F8943C9119
:1004F000822F809583238C93E8812E2BEFCF8FB7AB
:10050000F894EC912E2B2C938FBFEACF3FB7F89441
:100510008091070290910802A0910902B0910A020D
:1005200026B5A89B05C02F3F19F00196A11DB11D4E
:100530003FBFBA2FA92F982F8827BC01CD01620F8A
:10054000711D811D911D42E0660F771F881F991F45
:100550004A95D1F708958F929F92AF92BF92CF9212
:10056000DF92EF92FF924B015C010E9486026B01C9
:100570007C010E9486026C197D098E099F09683EE4
:10058000734081059105A8F321E0821A9108A10822
:10059000B10888EEC80E83E0D81EE11CF11C81145E
:1005A0009104A104B10429F7FF90EF90DF90CF9060
:1005B000BF90AF909F908F90089520910D02309141
:1005C0000E022817390771F490910B0280910C02EA
:1005D000981741F0E0910B02F0E0EA53FE4F808162
:1005E00090E008958FEF9FEF08950895EF92FF92A6
:1005F0000F931F93CF93DF93DC015C96ED90FC90FB
:100600005D97E114F10479F481E090E013969C93F6
:100610008E93129790E080E0DF91CF911F910F9120
:10062000FF90EF9008955196ED91FC91529750965E
:100630008C915097982F90950FB75E962C915E975E
:10064000122F127021FD6095F8942081112319F169
:10065000282B2083E7012197F1F728E0462F50E06F
:10066000308160FF1AC0382B3083E7012197F1F702
:10067000BA0175956795215089F7112381F0808122
:10068000892380830FBF5C968D919C910197F1F730
:1006900081E090E0C1CF2923DCCF3923E5CF9081E1
:1006A000892BEFCF20910D0230910E0228173907C8
:1006B00071F480910C0220910B0290E0805C9F4FBE
:1006C000821B910960E470E00E94C312089590E0DB
:1006D00080E0089520910D0230910E02281739070D
:1006E000B9F490910B0280910C02981789F0E09177
:1006F0000B02F0E0EA53FE4F808120910B0230E0C4
:100700002F5F3F4F2F73332720930B0290E0089504
:100710008FEF9FEF089590E080E00895CF92DF92F1
:10072000EF92FF920F931F93CF93DF93EC017A0127
:100730006901E881F9810190F081E02D0995E88156
:10074000F9810084F185E02D9801A601B701CE0161
:10075000DF91CF911F910F91FF90EF90DF90CF909D
:1007600009946F927F928F929F92AF92BF92CF9295
:10077000DF92EF92FF920F931F93CF93DF93CDB74A
:10078000DEB729970FB6F894DEBF0FBECDBFDC01F0
:100790001696ED91FC91319609F480C059013A0109
:1007A0006B018C01FE0131964F0185E0DF011D9246
:1007B0008A95E9F7D801ED91FC910488F589E02D3F
:1007C000B401C80109957C01892B09F051C01F8231
:1007D0001E8219861886D801ED91FC910688F7894A
:1007E000E02D9E01285F3F4FAE014A5F5F4FB4018D
:1007F000C80109957C01892BD9F5A114B10439F000
:1008000085E0F401D50101900D928A95E1F70E8102
:100810001F81C114D10479F0612F772767FD7A9584
:10082000072E000C880B990B0E94B310F601608311
:100830007183828393836114710489F08985682FA1
:10084000782F770F770B072E000C880B990B0E94DF
:10085000B310D3016D937D938D939C931397012BCC
:1008600039F488859985892B19F496E1E92EF12CC4
:10087000C70129960FB6F894DEBF0FBECDBFDF913A
:10088000CF911F910F91FF90EF90DF90CF90BF908D
:10089000AF909F908F907F906F90089587E1E82EA2
:1008A000F12CE6CF8F929F92AF92BF92CF92DF92C0
:1008B000EF92FF920F931F93CF93DF93EC018B0185
:1008C0006A017901E881F9810288F389E02DDB0171
:1008D0006C910995B82EE881F9810288F389E02DA1
:1008E000D80111966C91CE010995982EE881F98175
:1008F0000288F389E02DD80112966C91CE010995FA
:10090000A82EE881F9810288F389E02DD801139699
:100910006C91CE010995882EE881F9810288F389CE
:10092000E02DD80114966C91CE0109959B2D990D5F
:100930009A0D980D891319C09A2D882DF60191836F
:1009400080839B2D892DD7018D939C9390E080E02F
:10095000DF91CF911F910F91FF90EF90DF90CF909B
:10096000BF90AF909F908F90089585E190E0F0CF79
:10097000629570E09B0135952795359527952373F2
:10098000660F771F660F771F6C7C262B30E0C9013E
:10099000959587958575220F331F2A7A822B0895A6
:1009A0003F924F925F926F927F928F929F92AF92FF
:1009B000BF92CF92DF92EF92FF920F931F93CF934C
:1009C000DF93EC01162F7A0169010E9486024B0128
:1009D0005C01312C111139843601660C771C660CD0
:1009E000771C85E0681A71082701440C551C440CDB
:1009F000551C85E0481A510810E000E060E070E006
:100A0000CB012A813B814C815D812617370748073E
:100A100059070CF10115110599F582E0E816F1046A
:100A20001CF0C2010197F1F70E948602681979094A
:100A30008A099B09EA85F0E0EE0FFF1FE253FF4FA2
:100A4000A591B4912C910F5F1F4F3985232323115A
:100A500005C097FFD6CF6FEF7FEFCB01DF91CF912E
:100A60001F910F91FF90EF90DF90CF90BF90AF90CC
:100A70009F908F907F906F905F904F903F900895E0
:100A800082E0C816D10484F2C301CCCFFC01828578
:100A900090E00895FC01818590E00895CF92DF9267
:100AA000EF92FF920F931F93CF93DF93EC017A01A4
:100AB0006901E881F9810190F081E02D0995E881D3
:100AC000F9810480F581E02D9801A601B701CE01DE
:100AD000DF91CF911F910F91FF90EF90DF90CF901A
:100AE0000994CF92DF92EF92FF920F931F93CF93CF
:100AF000DF93CDB7DEB728970FB6F894DEBF0FBEF1
:100B0000CDBFDC011696ED91FC91319609F440C001
:100B10008A017B0119821A821B821C821D821E821D
:100B20001F821886DC01ED91FC910084F185E02D97
:100B3000AE014B5F5F4FBE016F5F7F4F09956C0148
:100B4000892BB1F4E114F10441F069817A818B8140
:100B50009C810E947412F70160830115110541F018
:100B60006D817E818F8198850E947412D8016C936B
:100B7000C60128960FB6F894DEBF0FBECDBFDF9139
:100B8000CF911F910F91FF90EF90DF90CF9008953C
:100B900087E1C82ED12CECCF262F2D7F29F4FC0124
:100BA000608790E080E0089588E190E00895DC019E
:100BB00017967C936E931697FB01EA50FF4FE491D2
:100BC0001996EC9319976E517F4FFB0164911A9619
:100BD0006C930895CF93DF93DC01EB01EC81FD81F1
:100BE0008A819B810896E817F90740F481E088879D
:100BF000F0E0E0E0CF01DF91CF9108953897FD83D9
:100C0000EC833097B9F31296CD91DC91139720972E
:100C100091F0CF018C1B9D0B23E0959587952A952C
:100C2000E1F78D831396FC93EE931297158214824D
:100C300017821682DFCF1196FC93EE93F3CFFC015F
:100C40002581222339F0F8E02F0290011124820F30
:100C5000931F089590E080E00895FC01019000202A
:100C6000E9F73197AF01481B590BBC0180EB92E0CB
:100C70000C94B1008F929F92AF92BF920F931F93EB
:100C8000CF93DF93CDB7DEB7A1970FB6F894DEBF51
:100C90000FBECDBF19A2423008F44AE08E010F5DAD
:100CA0001F4F842E912CB12CA12CA50194010E94E0
:100CB000D712E62FB901CA01EA30F4F4E05DD80199
:100CC000EE938D01232B242B252B79F790E080E0E8
:100CD000109719F0CD010E942D06A1960FB6F89439
:100CE000DEBF0FBECDBFDF91CF911F910F91BF909F
:100CF000AF909F908F900895E95CE1CF0E94E1143E
:100D00000F931F93CF93DF93EC0188819981009714
:100D100059F02A813B812617370730F081E0DF91B7
:100D2000CF911F910F9108958B016F5F7F4F0E94AC
:100D30002414009759F0998388831B830A832C819C
:100D40003D81232B59F7FC011082E8CF80E0E7CFEB
:100D5000CF92DF92EF92FF920F931F93CF93DF9387
:100D60008C01DC019296ED91FC91E80FF91F128243
:100D70006C01B2E0CB0ED11CC114D10431F1F601EB
:100D800001900020E9F73197EC19FD09F1F0DC0141
:100D9000ED90FC90D7011496CD91DC91CE0FDF1F22
:100DA000BE01C7010E948006882379F0F7012081E7
:100DB000318184819581B601820F931F0E94F814BE
:100DC000D7011596DC93CE931497F80113A212A2C3
:100DD000DF91CF911F910F91FF90EF90DF90CF9017
:100DE0000895CF93DF93EC018AA19BA19C012F5F13
:100DF0003F4F3BA32AA3FE01E80FF91F628302962F
:100E0000809718F0CE010E94A8068CA19DA10196A2
:100E10009DA38CA3DF91CF910895EF92FF920F9342
:100E20001F93CF93DF93EC017B0162E20E94F106F6
:100E30008701F80161918F01662391F0E2E6F1E00C
:100E4000F280FF2049F0329681816813F9CF6CE57A
:100E5000CE010E94F1066F2DCE010E94F106E9CF6E
:100E600062E2CE01DF91CF911F910F91FF90EF9041
:100E70000C94F106CF92DF92EF92FF920F931F93A3
:100E8000CF93DF93EC016A018B017B01E40EF51E29
:100E90000E151F05A9F0F80121918F018AA19BA1D0
:100EA000AC014F5F5F4F5BA34AA3FE01E80FF91F40
:100EB00022830296809760F3CE010E94A806E8CFB5
:100EC0004CA15DA14C0D5D1D5DA34CA3DF91CF91A5
:100ED0001F910F91FF90EF90DF90CF9008958F9228
:100EE0009F92AF92BF92CF92DF92EF92FF920F93B9
:100EF0001F93CF93DF93CDB7DEB766970FB6F89405
:100F0000DEBF0FBECDBF6C018E01095E1F4F7801A1
:100F10008AE0882E912CA12CB12CCB01BA01A5011D
:100F200094010E94D712942F852F605DF80162937F
:100F30008F01A901692F782F4115510561057105B0
:100F400061F7A7014E1B5F0BBF01C6010E943A0764
:100F500066960FB6F894DEBF0FBECDBFDF91CF917E
:100F60001F910F91FF90EF90DF90CF90BF90AF90C7
:100F70009F908F900895FB0101900020E9F7319731
:100F8000AF01461B570B0C943A072F923F924F929A
:100F90005F926F927F928F929F92AF92BF92CF9209
:100FA000DF92EF92FF920F931F93CF93DF93CDB712
:100FB000DEB76C970FB6F894DEBF0FBECDBF8C01C5
:100FC0001B01DC0114968C9114978F77863009F4FD
:100FD00074C278F48230B0F0843008F04CC21296BB
:100FE0004D915C9113976D917C91C1010E943A07DC
:100FF00026C28C3069F160F4883009F459C28A3015
:1010000009F43FC263E771E0C1010E94BB07E5C17B
:10101000803209F4ECC18034A9F76BE5C1010E946C
:10102000F106F801008111810115110509F4DAC1F9
:10103000B101C8010E94C507C8010E941F068C01AA
:10104000892B09F4CFC16CE2C1010E94F106ECCFFB
:10105000F801C080D180E280F380A7019601C7012A
:10106000B6010E94AC108111CDCF20E030E0A90183
:10107000C701B6010E94AC10882379F0A701960140
:10108000C701B6010E9408129B01AC01C701B6015D
:101090000E94AC10882309F4B5CF20E030E0A9010C
:1010A000C701B6010E94AC1087FF08C06DE2C10104
:1010B0000E94F106F7FAF094F7F8F09420E836E988
:1010C00048E15BE4C701B6010E94AA1287FD81C016
:1010D00074E1A72EB12C00E210E0188E1F8AF501F2
:1010E000E856FF4F2591359145915491C701B601BE
:1010F0000E94AA1287FD13C0F501E859FF4F259100
:10110000359145915491C701B6010E9412116B01AE
:101110007C012F89388D200F311F388F2F8B15952B
:10112000079534E0A31AB1088CEFA8168FEFB80624
:10113000B1F655245A9420E030E0A901C701B60168
:101140000E94AA1218160CF04BC02CEA35EC47E2AC
:1011500057E3C701B6010E94AC1018160CF440C04A
:10116000A52DB4E0AB02C0011124912C812CFC010F
:10117000E058FF4F3F019C0128563F4F59013FEF78
:10118000531671F1F301E80DF91D65917591859183
:101190009491A70196010E94AA1218169CF4F501D9
:1011A000E80DF91D2591359145915491C701B6017E
:1011B0000E9412116B017C018F89988D801B910B0D
:1011C000988F8F8B159507955A9494E0891A9108FA
:1011D000D6CF00E210E055E0552E188E1F8AABCF17
:1011E000C701B6010E947B124B015C012B013C013F
:1011F00006E080E492E4AFE0B0E0898F9A8FAB8F95
:10120000BC8F102F01509AE04916510461047104FB
:10121000C8F0698D7A8D8B8D9C8D2AE030E040E09E
:1012200050E00E94D712298F3A8F4B8F5C8FC301F9
:10123000B2012AE030E040E050E00E94D7122901DC
:101240003A01DFCFC501B4010E94B1109B01AC018E
:10125000C701B6010E9407126B017C01698D7A8D6E
:101260008B8D9C8D0E94B1109B01AC01C701B60112
:101270000E9412112B013C010E947B126B017C0128
:101280000E94B1109B01AC01C301B2010E94071280
:101290009B01AC010E9408120E947B12C60ED71E51
:1012A000E81EF91E898D9A8DAB8DBC8DC816D906A6
:1012B000EA06FB06D8F09FEF891A990AA90AB90A2B
:1012C000AF89B88DAB2B39F1BAE08B169104A1042C
:1012D000B10408F1EF89F88D3196F88FEF8BC12CAE
:1012E000D12C7601812C912C540183942AE0422E3A
:1012F000512C612C712CC701B601A30192010E94EF
:10130000D712672B682B692B51F4111644F469012D
:101310007A011150F0CFC12CD12C7601E7CFB50165
:10132000A401C1010E946F07112371F14E01F1E187
:101330008F0E911C012F54019AE0492E512C612CE3
:10134000712C015068F0C701B601A30192010E94FF
:10135000D712605DD4016E934D0169017A01F1CF1E
:10136000812F90E0BC0160957095F501E81BF90BA9
:1013700031978EE2808344275527461B570B6A0D11
:101380007B1DC1010E943A07EF89F88DEF2B29F1EF
:1013900065E6C1010E94F1060F89188D17FF07C08D
:1013A0006DE2C1010E94F106119501951109FE013E
:1013B00077969F018AE0E82EF12CC801B7010E94C0
:1013C000AF12805D82938B01672BB9F7A9014E1B89
:1013D0005F0BBF01C1010E943A07D10194968D9124
:1013E0009C9130C06DE5C1010E94F106F6CF6BE71C
:1013F000C1010E94F106F80100811181011511055A
:10140000D1F0D80116966D917C91C1010E940D0713
:101410006AE3C1010E94F106B101C8010E94C5073B
:10142000C8010E941F068C01892B29F06CE2C101C2
:101430000E94F106E3CF6DE7C1010E94F106F101C0
:1014400084A195A16C960FB6F894DEBF0FBECDBFF8
:10145000DF91CF911F910F91FF90EF90DF90CF9090
:10146000BF90AF909F908F907F906F905F904F90C4
:101470003F902F9008956D917C91C1010E940D07BE
:10148000DECFCD90DD90ED90FC90B701A601F7FE88
:101490000BC06DE2C1010E94F10644275527BA0135
:1014A0004C195D096E097F09C1010E946F07C7CF02
:1014B0004D915D916D917C91F7CF8C9168E771E0D2
:1014C000811102C06DE771E0C1010E94BB07B7CF77
:1014D0004F925F926F927F928F929F92AF92BF9244
:1014E000EF92FF920F931F93CF93DF93EC017B0159
:1014F00085E0FB0111928A95E9F761E08E810E94F7
:101500004A0260E08E810E94FE0164E170E080E0AA
:1015100090E00E94AB0261E08E810E94FE0168852E
:101520008E810E944A028FE590E00197F1F7E881F1
:10153000F9810088F189E02D26E030E04AE050E0B2
:1015400060E0CE0109956E31710581059105ACF41D
:10155000982F872F762F66276061CB01DF91CF917F
:101560001F910F91FF90EF90BF90AF909F908F9041
:101570007F906F905F904F900895E881F981008887
:10158000F189E02D26E030E04AE050E061E0CE0154
:101590000995623371058105910534F4982F872FE1
:1015A000762F66276161D9CF10E000E0812C912C65
:1015B00054018394E881F9810088F189E02D26E0C7
:1015C00030E04AE050E060E0CE01099568317105F5
:1015D0008105910534F4982F872F762F6627626155
:1015E000BCCFE881F9810088F189E02D26E030E068
:1015F0004AE050E061E0CE0109956B30710581054C
:10160000910534F4982F872F762F66276361A5CF35
:10161000F80133E0F595E7953A95E1F7EE0DFF1DFA
:101620009801277033272401350104C0440C551C50
:10163000661C771C2A95D2F72081693271058105D5
:101640009105FCF0422A40820F5F1F4F08321105BE
:1016500009F0B0CFE881F9810088F189E02D26E01A
:1016600030E04AE050E060E0CE0109956831710554
:10167000810591054CF4982F872F762F662764619A
:101680006CCF40944222DFCF70E060E066CFCF9213
:10169000DF92EF92FF920F931F93CF93DF93009708
:1016A000E9F061157105D1F06A018B017C01FC0143
:1016B000C081D1812097B9F06E817F816017710759
:1016C00081F06115710529F0C8010E94EF14892B82
:1016D00041F0CE010E941F06EC01ECCF90E080E0CB
:1016E0000EC0CE010CC0B601C7010E94EA050097EA
:1016F00031F0FC0124812F77248317830683DF9147
:10170000CF911F910F91FF90EF90DF90CF900895B0
:101710001F920F920FB60F9211242F933F934F9366
:101720005F936F937F938F939F93AF93BF93EF9349
:10173000FF9383E192E00E946F01FF91EF91BF91CF
:10174000AF919F918F917F916F915F914F913F9159
:101750002F910F900FBE0F901F9018951F920F9210
:101760000FB60F9211242F938F939F93EF93FF93B4
:10177000E0912302F09124028081E0912902F0910E
:101780002A0282FD1BC0908180912C028F5F8F7393
:1017900020912D02821741F0E0912C02F0E0ED5EE5
:1017A000FD4F958F80932C02FF91EF919F918F9128
:1017B0002F910F900FBE0F901F9018958081F4CF3E
:1017C0001F920F920FB60F9211242F933F938F9376
:1017D0009F93AF93BF9380910F0290911002A091BD
:1017E0001102B09112023091060223E0230F2D372F
:1017F00058F50196A11DB11D2093060280930F029A
:1018000090931002A0931102B093120280910702EC
:1018100090910802A0910902B0910A020196A11DBF
:10182000B11D8093070290930802A0930902B09320
:101830000A02BF91AF919F918F913F912F910F908D
:101840000FBE0F901F90189526E8230F0296A11D3A
:10185000B11DD2CF1F920F920FB60F9211242F936A
:101860003F934F935F936F937F938F939F93AF9328
:10187000BF93EF93FF93E0910D02F0910E0230972A
:1018800049F0A685B7858585968D91FF14C09C91FA
:101890008923A1F4FF91EF91BF91AF919F918F9117
:1018A0007F916F915F914F913F912F910F900FBE5C
:1018B0000F901F9018959C91892361F7A389B48993
:1018C0009C918589809589238C9386899789019736
:1018D000F1F7608D718DA685B785558538E020E0DC
:1018E000CB010197F1F7822F90E095958795282FEE
:1018F0004C91452309F02068315091F7868D81FD88
:10190000209580910C0290E001968F739927309179
:101910000B02381799F0A0910C02B0E0AA53BE4F09
:101920002C9380930C02828D938D0197F1F7A389FC
:10193000B4898C919589892B8C93ACCF868D8160ED
:10194000868FF1CFCF92DF92EF92FF921092160224
:101950001092150298EEC92E93E0D92EE12CF12CAD
:10196000C0921702D0921802E0921902F0921A0265
:101970008AE091E0909314028093130285EC90E04A
:101980009093200280931F0284EC90E090932202B7
:101990008093210280EC90E09093240280932302B4
:1019A00081EC90E0909326028093250282EC90E0F7
:1019B000909328028093270286EC90E090932A026D
:1019C0008093290210922C0210922D0210922E0266
:1019D00010922F028EE291E09093D0028093CF027A
:1019E00080E291EAA7E0B0E08093D1029093D20226
:1019F000A093D302B093D4028FEF9FEF9093D602BF
:101A00008093D5021092D7028093D8028093D90296
:101A100062E070E08FEC92E00E94D7058AE491E0EA
:101A20009093D0028093CF021092B3021092B20230
:101A3000C092B402D092B502E092B602F092B70220
:101A40008CE191E09093B1028093B0021092C702B2
:101A50001092C6021092C9021092C8021092CB02D4
:101A60001092CA021092CD021092CC026091CE0266
:101A70006E7F6D7F6093CE026695617081E068270E
:101A800081E10E94FE0161E081E10E944A02E7E0FB
:101A9000F1E0E491E093C002E3EFF0E0E491F0E0E4
:101AA000EE0FFF1FE852FF4F859194919093C20271
:101AB0008093C10260E080E10E944A028091CE02E0
:101AC00081FD04C061E080E10E94FE0180E180931D
:101AD000BC02E6E0F1E0E491E093BD02E2EFF0E069
:101AE000E491F0E0EE0FFF1FE253FF4F85919491D8
:101AF0009093BF028093BE02FF90EF90DF90CF9053
:101B00000895CF93DF93CDB7DEB7CF5CD1090FB681
:101B1000F894DEBF0FBECDBF789484B5826084BDDB
:101B200084B5816084BD85B5826085BD85B58160E1
:101B300085BD80916E00816080936E00109281005F
:101B4000809181008260809381008091810081601A
:101B500080938100809180008160809380008091DB
:101B6000B10084608093B1008091B0008160809367
:101B7000B00080917A00846080937A0080917A002E
:101B8000826080937A0080917A00816080937A00ED
:101B900080917A00806880937A001092C100E09171
:101BA0002302F091240282E08083E0911F02F091F1
:101BB00020021082E0912102F09122028FEC8083BA
:101BC00010922B02E0912702F091280286E0808398
:101BD000E0912502F0912602808180618083E0916E
:101BE0002502F0912602808188608083E0912502A1
:101BF000F0912602808180688083E0912502F09137
:101C0000260280818F7D80831092CB021092CA02BF
:101C10001092C9021092C8021092C7021092C60216
:101C20008DE991E09093CD028093CC029091BC021B
:101C3000963108F047C02DEB30E03093C702209377
:101C4000C6022BE931E03093C9022093C8022CE28E
:101C500031E03093CB022093CA022091680084E0E7
:101C6000983048F031E09E3008F430E081E001C067
:101C7000880F3A95EAF7822B809368002DE630E0D2
:101C8000983050F02BE630E09E3030F02CE630E01B
:101C9000963110F030E020E03093C4022093C3026C
:101CA000292F30E0983008F0A2C081E001C0880FF1
:101CB0009A95EAF78093C5028091CC029091CD026B
:101CC0000197F1F78091CA029091CB02892B49F1DB
:101CD000E0910D02F0910E0282E0E03BF80709F17D
:101CE000309739F0A389B4899C918589809589239F
:101CF0008C938091CE028E7F8093CE0210920C0244
:101D000010920B0280EB92E090930E0280930D02F2
:101D1000E091C302F091C40280819091C502892BA9
:101D2000808339EBC32ED12CCC0EDD1EEFEFCE1A03
:101D3000DE0A8E0108531F4F99EB892E912C8C0ED1
:101D40009D1EFFEF8F1A9F0A29EBA22EB12CAC0E1D
:101D5000BD1E8AE0A80EB11C7A2C6B2CC153DF4F3C
:101D60001882CF5CD040C253DF4F1882CE5CD04087
:101D700030E020E0AE0142535F4FBE0161537F4F20
:101D80008FEC92E00E9471057C01892BE9F183E8D8
:101D900091E00E942D06B7017727072E000C880BD3
:101DA000990B4AE00E943A068BE991E00E942D06C9
:101DB000EF2CFF24B70190E080E04AE00E943A0651
:101DC0008DE991E00E942D0668EE73E080E090E0DE
:101DD0000E94AB0280E090E0892B09F4BFCF0E9403
:101DE0005B01882309F4A8CF0E940000A5CF9E3094
:101DF00040F42850310981E001C0880F2A95EAF7A4
:101E000059CF2E503109F7CF80E094E00E94FF12A5
:101E10009C013C5F009711F430E020E0C654DF4F96
:101E200099838883CA5BD040C454DF4F99838883E9
:101E3000CC5BD040C254DF4F39832883CE5BD04087
:101E4000C054DF4F39832883C05CD040C953DF4F73
:101E50008881C75CD0408078CE53DF4F1882C25C47
:101E6000D0408064C953DF4F8883C75CD040CD53D6
:101E7000DF4F19821882C35CD040CB53DF4F1982E9
:101E80001882C55CD040B401C5010E94EA05FC017E
:101E9000892B41F0948190789460948380EA91E05A
:101EA00091838083B601872D962D0E94EA057C01DF
:101EB000009749F0FC0184818078806284831182DC
:101EC000108213821282C153DF4F5880CF5CD04002
:101ED000A60160EB71E0C7010E94470BFC01892B52
:101EE00061F0948190789A609483852D90E0B0E0C1
:101EF000A0E080839183A283B383C253DF4F5880D5
:101F0000CE5CD040A6016CEB71E0C7010E94470B8C
:101F1000FC01892B61F0948190789A609483852DDF
:101F200090E0B0E0A0E080839183A283B383F801C6
:101F300011821082138212821582148270E060E096
:101F4000C8010E948006F801208131818111AFC053
:101F50002115310519F0C9010E949B13F801118266
:101F600010821582148213821282CB56DF4F19839E
:101F70000883C559D040C954DF4F19821882C75B06
:101F8000D04084E2FE01EB56FF4FDE01AF58BF4F59
:101F900001900D928A95E1F784E2FE01EF58FF4F20
:101FA000DE01A35BBF4F01900D928A95E1F784E2B9
:101FB000FE01E35BFF4FDE01999601900D928A9539
:101FC000E1F784E2FE01B996DE01119601900D92CF
:101FD0008A95E1F71EA21DA2CE0189960E94A8064D
:101FE000CE01835B9F4F0E94A806BE016F5F7F4FAB
:101FF000872D962D0E94C507CE0101960E94A80646
:10200000CE018F589F4F0E94A806CE018B569F4F3E
:102010000E94A806F801448155816081718183E1A5
:1020200092E00E94B10083E192E00E944F01892B6F
:1020300009F45DC01A8219821C821B821E821D82D5
:1020400070E060E0CE0101960E94800629813A810D
:10205000811135C02115310519F0C9010E949B136A
:102060001A8219821E821D821C821B820E9401011B
:102070004D815E8197FD2BC089A71AA67A01FFEFDB
:10208000EF1AFF0AB701CE0101960E94800688234D
:1020900069F329813A818D819E81BE01675D7F4F01
:1020A000820F931F0E94F814FE82ED82DFCF15820B
:1020B000148262E771E0C9010E94F81456CF1E82B3
:1020C0001D8262E771E0C9010E94F814CFCF6981D7
:1020D0007A8180EB92E00E94B1008DE991E00E944C
:1020E0002D0689819A81009711F00E949B136CED57
:1020F00075E080E090E00E94AB02F8018081918160
:10210000009711F00E949B13C654DF4F888199817C
:10211000CA5BD040009709F45DCE0E949B135ACE53
:102120008CE191E09093B1028093B00280910D0216
:1021300090910E02805B924071F4E091C302F091A5
:10214000C40290818091C50280958923808310927A
:102150000E0210920D0208950E94EE1008F481E024
:102160000895E89409C097FB3EF49095809570958A
:1021700061957F4F8F4F9F4F9923A9F0F92F96E9D3
:10218000BB279395F695879577956795B795F11148
:10219000F8CFFAF4BB0F11F460FF1BC06F5F7F4FE5
:1021A0008F4F9F4F16C0882311F096E911C07723F7
:1021B00021F09EE8872F762F05C0662371F096E800
:1021C000862F70E060E02AF09A95660F771F881FCF
:1021D000DAF7880F9695879597F90895990F000873
:1021E000550FAA0BE0E8FEEF16161706E807F907E9
:1021F000C0F012161306E407F50798F0621B730B84
:10220000840B950B39F40A2661F0232B242B252B04
:1022100021F408950A2609F4A140A6958FEF811DA7
:10222000811D08950E9425110C9496110E94881119
:1022300038F00E948F1120F0952311F00C947F113B
:102240000C94851111240C94CA110E94A71170F3EB
:10225000959FC1F3950F50E0551F629FF001729F4B
:10226000BB27F00DB11D639FAA27F00DB11DAA1F5A
:10227000649F6627B00DA11D661F829F2227B00DA7
:10228000A11D621F739FB00DA11D621F839FA00D32
:10229000611D221F749F3327A00D611D231F849F82
:1022A000600D211D822F762F6A2F11249F575040D9
:1022B0009AF0F1F088234AF0EE0FFF1FBB1F661F54
:1022C000771F881F91505040A9F79E3F510580F01D
:1022D0000C947F110C94CA115F3FE4F3983ED4F341
:1022E000869577956795B795F795E7959F5FC1F7C1
:1022F000FE2B880F911D9695879597F9089597F96C
:102300009F6780E870E060E008959FEF80EC08959B
:1023100000240A94161617061806090608950024C4
:102320000A9412161306140605060895092E03943E
:10233000000C11F4882352F0BB0F40F4BF2B11F4B2
:1023400060FF04C06F5F7F4F8F4F9F4F089557FD11
:102350009058440F551F59F05F3F71F04795880F13
:1023600097FB991F61F09F3F79F0879508951216AA
:1023700013061406551FF2CF4695F1DF08C0161656
:1023800017061806991FF1CF869571056105089407
:102390000895E894BB2766277727CB0197F908951E
:1023A0002F923F924F925F926F927F928F929F9265
:1023B000AF92BF92CF92DF92EF92FF920F931F9353
:1023C000CF93DF93CDB7DEB7CA1BDB0B0FB6F89404
:1023D000DEBF0FBECDBF09942A88398848885F8444
:1023E0006E847D848C849B84AA84B984C884DF80B5
:1023F000EE80FD800C811B81AA81B981CE0FD11D99
:102400000FB6F894DEBF0FBECDBFED010895505852
:10241000BB27AA270E941F120C9496110E948811B4
:1024200038F00E948F1120F039F49F3F19F426F400
:102430000C9485110EF4E095E7FB0C947F11E92FC5
:102440000E94A71158F3BA1762077307840795070C
:1024500020F079F4A6F50C94C9110EF4E0950B2E3A
:10246000BA2FA02D0B01B90190010C01CA01A001E6
:102470001124FF27591B99F0593F50F4503E68F141
:102480001A16F040A22F232F342F4427585FF3CF82
:10249000469537952795A795F0405395C9F77EF453
:1024A0001F16BA0B620B730B840BBAF09150A1F09C
:1024B000FF0FBB1F661F771F881FC2F70EC0BA0F22
:1024C000621F731F841F48F4879577956795B795AA
:1024D000F7959E3F08F0B0CF9395880F08F09927A5
:1024E000EE0F9795879508950E947B126894B1111D
:1024F0000C94CA1108950E94AF1188F09F5798F06C
:10250000B92F9927B751B0F0E1F0660F771F881FF8
:10251000991F1AF0BA95C9F714C0B13091F00E9412
:10252000C911B1E008950C94C911672F782F88273D
:10253000B85F39F0B93FCCF3869577956795B39539
:10254000D9F73EF490958095709561957F4F8F4FA8
:102550009F4F08950E94EE1008F48FEF0895AA1B74
:10256000BB1B51E107C0AA1FBB1FA617B70710F07E
:10257000A61BB70B881F991F5A95A9F780959095B0
:10258000BC01CD01089597FB072E16F4009407D0E7
:1025900077FD09D00E94AF1207FC05D03EF490955C
:1025A00081959F4F0895709561957F4F0895A1E2A1
:1025B0001A2EAA1BBB1BFD010DC0AA1FBB1FEE1FBD
:1025C000FF1FA217B307E407F50720F0A21BB30B08
:1025D000E40BF50B661F771F881F991F1A9469F784
:1025E00060957095809590959B01AC01BD01CF01E0
:1025F0000895EE0FFF1F0590F491E02D09940F93BD
:102600001F93CF93DF938230910510F482E090E026
:10261000E091DC02F091DD0230E020E0B0E0A0E0EB
:10262000309799F42115310509F44AC0281B390B5C
:1026300024303105D8F58A819B816115710589F1B6
:10264000FB0193838283FE0111C04081518102818D
:10265000138148175907E0F04817590799F4109764
:1026600061F012960C93129713961C933296CF0139
:10267000DF91CF911F910F9108950093DC02109389
:10268000DD02F4CF2115310551F04217530738F020
:10269000A901DB019A01BD01DF01F801C1CFEF0102
:1026A000F9CF9093DD028093DC02CDCFFE01E20FE3
:1026B000F31F819391932250310939832883D7CF17
:1026C0002091DA023091DB02232B41F420910201A8
:1026D000309103013093DB022093DA022091000154
:1026E000309101012115310541F42DB73EB74091DC
:1026F000040150910501241B350BE091DA02F091A1
:10270000DB02E217F307A0F42E1B3F0B2817390753
:1027100078F0AC014E5F5F4F2417350748F04E0F3D
:102720005F1F5093DB024093DA02819391939FCF16
:10273000F0E0E0E09CCFCF93DF930097E9F0FC015D
:10274000329713821282A091DC02B091DD02ED017A
:1027500030E020E01097A1F420813181820F931F97
:102760002091DA023091DB022817390709F061C0A5
:10277000F093DB02E093DA02DF91CF910895EA0152
:10278000CE17DF07E8F54A815B819E0141155105AF
:10279000B1F7E901FB83EA8349915991C40FD51F31
:1027A000EC17FD0761F4808191810296840F951FDB
:1027B000E90199838883828193819B838A83F0E0F6
:1027C000E0E012968D919C9113970097B9F52D91A9
:1027D0003C911197CD010296820F931F2091DA024E
:1027E0003091DB022817390739F6309751F51092EE
:1027F000DD021092DC02B093DB02A093DA02BCCFC0
:10280000D383C28340815181840F951FC817D90794
:1028100061F44E5F5F4F88819981480F591F518342
:1028200040838A819B81938382832115310509F03E
:10283000B0CFF093DD02E093DC029ECFFD01DC011E
:10284000C0CF13821282D7CFB0E0A0E0EAE2F4E179
:102850000C94D2118C01009751F4CB010E94FF120D
:102860008C01C801CDB7DEB7E0E10C94EE11FC019C
:10287000E60FF71F9C0122503109E217F30708F415
:102880009DC0D901CD91DC911197C617D70798F05B
:10289000C530D10530F3CE0104978617970708F3AA
:1028A000C61BD70B2297C193D1936D937C93CF0115
:1028B0000E949B13D6CF5B01AC1ABD0A4C018C0E53
:1028C0009D1EA091DC02B091DD02512C412CF12C17
:1028D000E12C109731F58091DA029091DB02881596
:1028E000990509F05CC04616570608F058C080915B
:1028F000000190910101009741F48DB79EB740917E
:10290000040150910501841B950BE817F90708F0A5
:1029100055C0F093DB02E093DA02F9017183608322
:10292000A0CF8D919C91119712966C90129713964F
:102930007C901397A815B90559F56C0142E0C40EB7
:10294000D11CCA14DB0420F1AC014A195B09DA017D
:102950001296159780F06282738251834083D90169
:102960006D937C93E114F10471F0D7011396FC93FD
:10297000EE93129776CF22968C0F9D1FF9019183CB
:102980008083F301EFCFF093DD02E093DC0269CFA7
:102990004816590608F42C017D01D3019ACFCB01CA
:1029A0000E94FF127C01009749F0AE01B8010E941D
:1029B000E614C8010E949B13870153CF10E000E08A
:1029C00050CF81E090E0F8940C94FF14FB01DC01FF
:1029D00002C001900D9241505040D8F70895FB017C
:1029E000DC018D91019080190110D9F3990B0895A4
:1029F000FB01DC0101900D920020E1F7089510E049
:102A0000C6E8D0E004C0FE010E94F9122196C73842
:102A1000D107C9F7F894FFCF0000DE028000000064
:102A200000009101B100DE00DE014F01ED00410127
:102A300000000000F602B1008B03F50252036A03A6
:102A4000DD0200000000D705CC0571054E057E06AD
:102A50007E064A054605D004B8047E0652040000EE
:102A60000000D705CC0571054E05B1038E034A055C
:102A70004605D004B804680A52042F2F22225C5C59
:102A80006208660C6E0A720D7409006E756C6C003B
:102A9000747275650066616C7365005265616420CF
:102AA0004448543131206661696C65642C2065723C
:102AB000723D002C000D0A006465766963655F73E2
:102AC000656E64446174610074656D7065726174F3
:0E2AD0007572650068756D696469747900003F
:107E0000112484B714BE81FFF0D085E080938100F7
:107E100082E08093C00088E18093C10086E0809377
:107E2000C20080E18093C4008EE0C9D0259A86E02C
:107E300020E33CEF91E0309385002093840096BBD3
:107E4000B09BFECF1D9AA8958150A9F7CC24DD24C4
:107E500088248394B5E0AB2EA1E19A2EF3E0BF2EE7
:107E6000A2D0813461F49FD0082FAFD0023811F036
:107E7000013811F484E001C083E08DD089C08234E0
:107E800011F484E103C0853419F485E0A6D080C0E4
:107E9000853579F488D0E82EFF2485D0082F10E0AE
:107EA000102F00270E291F29000F111F8ED06801E7
:107EB0006FC0863521F484E090D080E0DECF843638
:107EC00009F040C070D06FD0082F6DD080E0C81688
:107ED00080E7D80618F4F601B7BEE895C0E0D1E017
:107EE00062D089930C17E1F7F0E0CF16F0E7DF06D8
:107EF00018F0F601B7BEE89568D007B600FCFDCFD4
:107F0000A601A0E0B1E02C9130E011968C91119780
:107F100090E0982F8827822B932B1296FA010C0160
:107F200087BEE89511244E5F5F4FF1E0A038BF0790
:107F300051F7F601A7BEE89507B600FCFDCF97BE46
:107F4000E89526C08437B1F42ED02DD0F82E2BD052
:107F50003CD0F601EF2C8F010F5F1F4F84911BD097
:107F6000EA94F801C1F70894C11CD11CFA94CF0C13
:107F7000D11C0EC0853739F428D08EE10CD085E9AC
:107F80000AD08FE07ACF813511F488E018D01DD067
:107F900080E101D065CF982F8091C00085FFFCCF94
:107FA0009093C60008958091C00087FFFCCF809118
:107FB000C00084FD01C0A8958091C6000895E0E648
:107FC000F0E098E1908380830895EDDF803219F02E
:107FD00088E0F5DFFFCF84E1DECF1F93182FE3DFCA
:107FE0001150E9F7F2DF1F91089580E0E8DFEE27F6
:047FF000FF270994CA
:027FFE00040479
:00000001FF
